:020000020000FC
:0200000020C01E
:100040007BC03A9A3B9A219A00EF0AB90FEF0BB99D
:1000500001E000936E00789400C0002705BD429A2D
:10006000439A1AD03030E9F33D3021F44298439856
:100070000FD0F3CF3E3019F443980AD0EECF393089
:1000800019F4429805D0E9CF04E005BD01D0E5CFD1
:1000900003D03030E9F7089530E00FEE0BB90000DF
:1000A0004B9902C031E045C04A9902C032E041C0DC
:1000B000499902C033E03DC0489902C034E039C0DC
:1000C0000FED0BB900004B9902C035E032C04A99E0
:1000D00002C036E02EC0499902C037E02AC04899D4
:1000E00002C038E026C00FEB0BB900004B9902C0EC
:1000F00039E01FC04A9902C03AE01BC0499902C0CA
:100100003BE017C0489902C03CE013C00FE70BB9B1
:1001100000004B9902C03DE00CC04A9902C03EE08D
:1001200008C0499902C03FE004C0489902C030E1CC
:1001300000C00FEF0BB9089509EB06BD199A189589
:00000001FF
