:020000020000FC
:0200000010C02E
:1000200058C1F89408E00EBF0FEF0DBF0E942300E7
:100030000E9427000E942C000E943C000E943F006A
:1000400011247894AAC018E314B915B9089500EFE3
:100050000AB90FEF0BB90895009124000C7F0093AB
:10006000240000912500007F0093250000916E0080
:10007000016000936E00089566E050E4089500E387
:10008000009300018FEF772708950F931F93772335
:1000900071F40E945D000F3F49F0081759F0802F5E
:1000A0000E94B3000093000175E004C08FEF772336
:1000B00009F07A951F910F9108951F932F933F9305
:1000C0004F933FEF41E05F9A5E9A5D9A5C9A4130B0
:1000D00039F0423039F0433039F0443039F024C03F
:1000E0005F9805C05E9803C05D9801C05C980000F1
:1000F00000000000000019B113FF0E949A0012FFD7
:100100000E949C0011FF0E949E0010FF0E94A00010
:10011000212F20952F700E94A800023020F44395D3
:10012000453088F201C03FEF032F4F913F912F914F
:100130001F91089520E005C021E003C022E001C026
:1001400023E0342F3A95330F330F320F3395089550
:100150001F9300E0122F112321F010FD0395169537
:10016000FACF1F910895FF93EF93013050F00131C2
:1001700040F40A95F1E0EAE8E00F08F4F395049101
:1001800001C00FE3EF91FF910895373839463435B8
:10019000364531323344413042430E9473010E945C
:1001A0004500FBCFFF93EF93003309F1013311F1C9
:1001B000023319F1033321F1043329F1053331F10D
:1001C000063339F1073341F1083349F1093351F16D
:1001D000013459F1023461F1033469F1043471F1ED
:1001E000053479F1063481F10AEB12E02FC002E800
:1001F00012E02CC00AE812E029C002E912E026C091
:100200000AE912E023C002EA12E020C00AEA12E082
:100210001DC002EB12E01AC00AEB12E017C002EC9C
:1002200012E014C00AEC12E011C002E512E00EC0A8
:100230000AE512E00BC002E612E008C00AE612E08E
:1002400005C002E712E002C00AE712E0EF91FF9159
:100250000895060909090F0909000E09090E09097F
:100260000E0007080808080807000E09090909090F
:100270000E000F08080E08080F000F08080E0808E7
:1002800008000F09090909090F0002060A02020203
:1002900002000F01010F08080F000F010107010103
:1002A0000F000909090F010101000F08080F0101E2
:1002B0000F000F08080F09090F000F0101020404C5
:1002C00004000F09090F09090F000F09090F0101A7
:1002D0000F0000EF009326001C9A00912500087F74
:1002E0000093250018950F931F932F933F93009130
:1002F00000010E94D200E02FF12F673008F066E085
:10030000E60FF11D449120E133273E30D1F42B9AC2
:1003100040FF2B981D9A1D9A2B9A41FF2B981D9AEE
:100320001D9A2B9A42FF2B981D9A1D9A2B9A43FFD8
:100330002B981D9A1D9A2B9A44FF2B981D9A1D9A53
:1003400019C02B9A10FE2B981D9A1D9A2B9A11FEFC
:100350002B981D9A1D9A2B9A12FE2B981D9A1D9A66
:100360002B9A13FE2B981D9A1D9A2B9A14FE2B98EC
:100370001D9A1D9A33952A9541F62B981D9A1D9A20
:100380002B9A56FF2B981D9A1D9A2B9A55FF2B9846
:100390001D9A1D9A2B9A54FF2B981D9A1D9A2B9AE1
:1003A00053FF2B981D9A1D9A2B9A52FF2B981D9A3A
:1003B0001D9A2B9A51FF2B981D9A1D9A2B9A50FF2C
:1003C0002B981D9A1D9A6A95569511F466E050E493
:1003D0001C9A009125000760009325003F912F9102
:0603E0001F910F9108952A
:00000001FF
