:020000020000FC
:0200000020C01E
:020024004BC1CE
:1000400034C108E00EBF0FEF0DBF11240AE304B95D
:1000500009E305B900EF0AB90FEF0BB907D001E0CA
:1000600000936E0017D07FEF78943EC00091B000EF
:100070000C7F0093B0000091B100077F07600093F0
:10008000B100009170000160009370000BEF0093CD
:10009000B200089566E050E40895060909090F09C1
:1000A00009000E09090E09090E00070808080808CA
:1000B00007000E09090909090E000F08080E0808B3
:1000C0000F000F08080E080808000708080B0909A8
:1000D00006000000000000000000AA00B200BA0004
:1000E000C200CA009A00A200002705BD8FD03030A0
:1000F000E9F303B100FB3D3031F470E016F019E88C
:100100007AC014EC78C03E3031F471E016F016E994
:1001100072C01BEC70C03F3031F472E016F011EA8F
:100120006AC011ED68C0303131F473E016F016EAA0
:1001300062C013ED60C0393031F474E016F010EB9A
:100140005AC018ED58C03A3031F475E016F019EB8A
:1001500052C01CED50C03B3031F476E016F011EC8B
:100160004AC010EE48C03C3031F470E016F014EC98
:1001700042C012EE40C0353031F471E016F01BEC95
:100180003AC015EE38C0363031F472E016F011ED99
:1001900032C018EE30C0373031F473E016F013ED92
:1001A0002AC01AEE28C0383031F474E016F018ED89
:1001B00022C01CEE20C0313031F475E016F01CED89
:1001C0001AC01EEE18C0323031F476E016F010EE90
:1001D00012C010EF10C0333031F470E016F012EEA0
:1001E0000AC011EF08C0343059F471E016F015EE72
:1001F00002C013EF00C004E005BD04D07FEF74CF50
:1002000001D072CF03D03030E9F7089533270FEED5
:100210000BB900004B9902C031E044C04A9902C0BA
:1002200032E040C0499902C033E03CC0489902C066
:1002300034E038C00FED0BB900004B9902C035E037
:1002400031C04A9902C036E02DC0499902C037E05A
:1002500029C0489902C038E025C00FEB0BB9000057
:100260004B9902C039E01EC04A9902C03AE01AC058
:10027000499902C03BE016C0489902C03CE012C058
:100280000FE70BB900004B9902C03DE00BC04A9943
:1002900002C03EE007C0499902C03FE003C0489950
:1002A00001C030E10FEF0BB908950F930FB70F9313
:1002B00016BD199A0F910FBF0F9118950F930FB795
:1002C0000F931F932F933F934F930BEF0093B20025
:1002D000773088F4272F220FEAEDF0E0E20FF11DCE
:1002E00005911491E02FF12F673008F066E0E60FDA
:1002F000F11D449101C0442720E133273F30D1F460
:100300002B9A40FF2B981D9A1D9A2B9A41FF2B98F0
:100310001D9A1D9A2B9A42FF2B981D9A1D9A2B9A73
:1003200043FF2B981D9A1D9A2B9A44FF2B981D9AD8
:100330001D9A19C02B9A10FE2B981D9A1D9A2B9A64
:1003400011FE2B981D9A1D9A2B9A12FE2B981D9A1E
:100350001D9A2B9A13FE2B981D9A1D9A2B9A14FE08
:100360002B981D9A1D9A33952A9541F62B981D9A24
:100370001D9A2B9A56FF2B981D9A1D9A2B9A55FF62
:100380002B981D9A1D9A2B9A54FF2B981D9A1D9AF3
:100390002B9A53FF2B981D9A1D9A2B9A52FF2B983C
:1003A0001D9A1D9A2B9A51FF2B981D9A1D9A2B9AD4
:1003B00050FF2B981D9A1D9A6A95569511F466E088
:1003C00050E41C9A000000001C9A4F913F912F911D
:0A03D0001F910F910FBF0F911895B8
:00000001FF
